{
  "contractName": "TFUEL",
  "abi": [
    {
      "inputs": [
        {
          "internalType": "string",
          "name": "_name",
          "type": "string"
        },
        {
          "internalType": "string",
          "name": "_symbol",
          "type": "string"
        },
        {
          "internalType": "uint256",
          "name": "_total",
          "type": "uint256"
        },
        {
          "internalType": "uint256",
          "name": "_decimal",
          "type": "uint256"
        }
      ],
      "stateMutability": "nonpayable",
      "type": "constructor"
    },
    {
      "anonymous": false,
      "inputs": [
        {
          "indexed": true,
          "internalType": "address",
          "name": "owner",
          "type": "address"
        },
        {
          "indexed": true,
          "internalType": "address",
          "name": "spender",
          "type": "address"
        },
        {
          "indexed": false,
          "internalType": "uint256",
          "name": "value",
          "type": "uint256"
        }
      ],
      "name": "Approval",
      "type": "event"
    },
    {
      "anonymous": false,
      "inputs": [
        {
          "indexed": true,
          "internalType": "address",
          "name": "from",
          "type": "address"
        },
        {
          "indexed": true,
          "internalType": "address",
          "name": "to",
          "type": "address"
        },
        {
          "indexed": false,
          "internalType": "uint256",
          "name": "value",
          "type": "uint256"
        }
      ],
      "name": "Transfer",
      "type": "event"
    },
    {
      "inputs": [],
      "name": "_totalsupply",
      "outputs": [
        {
          "internalType": "uint256",
          "name": "",
          "type": "uint256"
        }
      ],
      "stateMutability": "view",
      "type": "function",
      "constant": true
    },
    {
      "inputs": [],
      "name": "decimal",
      "outputs": [
        {
          "internalType": "uint256",
          "name": "",
          "type": "uint256"
        }
      ],
      "stateMutability": "view",
      "type": "function",
      "constant": true
    },
    {
      "inputs": [],
      "name": "name",
      "outputs": [
        {
          "internalType": "string",
          "name": "",
          "type": "string"
        }
      ],
      "stateMutability": "view",
      "type": "function",
      "constant": true
    },
    {
      "inputs": [],
      "name": "owner",
      "outputs": [
        {
          "internalType": "address",
          "name": "",
          "type": "address"
        }
      ],
      "stateMutability": "view",
      "type": "function",
      "constant": true
    },
    {
      "inputs": [],
      "name": "symbol",
      "outputs": [
        {
          "internalType": "string",
          "name": "",
          "type": "string"
        }
      ],
      "stateMutability": "view",
      "type": "function",
      "constant": true
    },
    {
      "inputs": [],
      "name": "totalSupply",
      "outputs": [
        {
          "internalType": "uint256",
          "name": "",
          "type": "uint256"
        }
      ],
      "stateMutability": "view",
      "type": "function",
      "constant": true
    },
    {
      "inputs": [
        {
          "internalType": "address",
          "name": "account",
          "type": "address"
        }
      ],
      "name": "balanceOf",
      "outputs": [
        {
          "internalType": "uint256",
          "name": "",
          "type": "uint256"
        }
      ],
      "stateMutability": "view",
      "type": "function",
      "constant": true
    },
    {
      "inputs": [
        {
          "internalType": "address",
          "name": "_to",
          "type": "address"
        },
        {
          "internalType": "uint256",
          "name": "_amount",
          "type": "uint256"
        }
      ],
      "name": "transfer",
      "outputs": [
        {
          "internalType": "bool",
          "name": "",
          "type": "bool"
        }
      ],
      "stateMutability": "nonpayable",
      "type": "function"
    },
    {
      "inputs": [
        {
          "internalType": "address",
          "name": "_from",
          "type": "address"
        },
        {
          "internalType": "address",
          "name": "_to",
          "type": "address"
        },
        {
          "internalType": "uint256",
          "name": "_amount",
          "type": "uint256"
        }
      ],
      "name": "transferFrom",
      "outputs": [
        {
          "internalType": "bool",
          "name": "",
          "type": "bool"
        }
      ],
      "stateMutability": "nonpayable",
      "type": "function"
    },
    {
      "inputs": [
        {
          "internalType": "address",
          "name": "_owner",
          "type": "address"
        },
        {
          "internalType": "address",
          "name": "_spender",
          "type": "address"
        }
      ],
      "name": "allowance",
      "outputs": [
        {
          "internalType": "uint256",
          "name": "",
          "type": "uint256"
        }
      ],
      "stateMutability": "view",
      "type": "function",
      "constant": true
    },
    {
      "inputs": [
        {
          "internalType": "address",
          "name": "_to",
          "type": "address"
        },
        {
          "internalType": "uint256",
          "name": "_amount",
          "type": "uint256"
        }
      ],
      "name": "approve",
      "outputs": [
        {
          "internalType": "bool",
          "name": "",
          "type": "bool"
        }
      ],
      "stateMutability": "nonpayable",
      "type": "function"
    },
    {
      "inputs": [
        {
          "internalType": "uint256",
          "name": "_amount",
          "type": "uint256"
        }
      ],
      "name": "mint",
      "outputs": [],
      "stateMutability": "nonpayable",
      "type": "function"
    },
    {
      "inputs": [
        {
          "internalType": "address",
          "name": "_add",
          "type": "address"
        }
      ],
      "name": "transferowner",
      "outputs": [],
      "stateMutability": "nonpayable",
      "type": "function"
    }
  ],
  "bytecode": "0x60806040523480156200001157600080fd5b50604051620015d9380380620015d9833981810160405281019062000037919062000263565b33600460006101000a81548173ffffffffffffffffffffffffffffffffffffffff021916908373ffffffffffffffffffffffffffffffffffffffff1602179055508360009080519060200190620000909291906200012a565b508260019080519060200190620000a99291906200012a565b50816002819055508060038190555060025460056000600460009054906101000a900473ffffffffffffffffffffffffffffffffffffffff1673ffffffffffffffffffffffffffffffffffffffff1673ffffffffffffffffffffffffffffffffffffffff168152602001908152602001600020819055505050505062000495565b8280546200013890620003a0565b90600052602060002090601f0160209004810192826200015c5760008555620001a8565b82601f106200017757805160ff1916838001178555620001a8565b82800160010185558215620001a8579182015b82811115620001a75782518255916020019190600101906200018a565b5b509050620001b79190620001bb565b5090565b5b80821115620001d6576000816000905550600101620001bc565b5090565b6000620001f1620001eb846200032a565b62000301565b9050828152602081018484840111156200020a57600080fd5b620002178482856200036a565b509392505050565b600082601f8301126200023157600080fd5b815162000243848260208601620001da565b91505092915050565b6000815190506200025d816200047b565b92915050565b600080600080608085870312156200027a57600080fd5b600085015167ffffffffffffffff8111156200029557600080fd5b620002a3878288016200021f565b945050602085015167ffffffffffffffff811115620002c157600080fd5b620002cf878288016200021f565b9350506040620002e2878288016200024c565b9250506060620002f5878288016200024c565b91505092959194509250565b60006200030d62000320565b90506200031b8282620003d6565b919050565b6000604051905090565b600067ffffffffffffffff8211156200034857620003476200043b565b5b62000353826200046a565b9050602081019050919050565b6000819050919050565b60005b838110156200038a5780820151818401526020810190506200036d565b838111156200039a576000848401525b50505050565b60006002820490506001821680620003b957607f821691505b60208210811415620003d057620003cf6200040c565b5b50919050565b620003e1826200046a565b810181811067ffffffffffffffff821117156200040357620004026200043b565b5b80604052505050565b7f4e487b7100000000000000000000000000000000000000000000000000000000600052602260045260246000fd5b7f4e487b7100000000000000000000000000000000000000000000000000000000600052604160045260246000fd5b6000601f19601f8301169050919050565b620004868162000360565b81146200049257600080fd5b50565b61113480620004a56000396000f3fe608060405234801561001057600080fd5b50600436106100cf5760003560e01c806376809ce31161008c578063a0712d6811610066578063a0712d6814610216578063a393dc4414610232578063a9059cbb14610250578063dd62ed3e14610280576100cf565b806376809ce3146101bc5780638da5cb5b146101da57806395d89b41146101f8576100cf565b806306fdde03146100d4578063095ea7b3146100f257806318160ddd1461012257806323b872dd146101405780633312cbf41461017057806370a082311461018c575b600080fd5b6100dc6102b0565b6040516100e99190610ed1565b60405180910390f35b61010c60048036038101906101079190610dd0565b61033e565b6040516101199190610eb6565b60405180910390f35b61012a610430565b6040516101379190610ef3565b60405180910390f35b61015a60048036038101906101559190610d81565b61043a565b6040516101679190610eb6565b60405180910390f35b61018a60048036038101906101859190610d1c565b6107ba565b005b6101a660048036038101906101a19190610d1c565b6107fe565b6040516101b39190610ef3565b60405180910390f35b6101c4610847565b6040516101d19190610ef3565b60405180910390f35b6101e261084d565b6040516101ef9190610e9b565b60405180910390f35b610200610873565b60405161020d9190610ed1565b60405180910390f35b610230600480360381019061022b9190610e0c565b610901565b005b61023a610a52565b6040516102479190610ef3565b60405180910390f35b61026a60048036038101906102659190610dd0565b610a58565b6040516102779190610eb6565b60405180910390f35b61029a60048036038101906102959190610d45565b610c3f565b6040516102a79190610ef3565b60405180910390f35b600080546102bd9061102f565b80601f01602080910402602001604051908101604052809291908181526020018280546102e99061102f565b80156103365780601f1061030b57610100808354040283529160200191610336565b820191906000526020600020905b81548152906001019060200180831161031957829003601f168201915b505050505081565b600081600660003373ffffffffffffffffffffffffffffffffffffffff1673ffffffffffffffffffffffffffffffffffffffff16815260200190815260200160002060008573ffffffffffffffffffffffffffffffffffffffff1673ffffffffffffffffffffffffffffffffffffffff168152602001908152602001600020819055508273ffffffffffffffffffffffffffffffffffffffff163373ffffffffffffffffffffffffffffffffffffffff167f8c5be1e5ebec7d5bd14f71427d1e84f3dd0314c0f7b2291e5b200ac8c7c3b9258460405161041e9190610ef3565b60405180910390a36001905092915050565b6000600254905090565b600081600560008673ffffffffffffffffffffffffffffffffffffffff1673ffffffffffffffffffffffffffffffffffffffff16815260200190815260200160002054101561048857600080fd5b81600660008673ffffffffffffffffffffffffffffffffffffffff1673ffffffffffffffffffffffffffffffffffffffff16815260200190815260200160002060003373ffffffffffffffffffffffffffffffffffffffff1673ffffffffffffffffffffffffffffffffffffffff16815260200190815260200160002054101561051157600080fd5b61056382600560008773ffffffffffffffffffffffffffffffffffffffff1673ffffffffffffffffffffffffffffffffffffffff16815260200190815260200160002054610cc690919063ffffffff16565b600560008673ffffffffffffffffffffffffffffffffffffffff1673ffffffffffffffffffffffffffffffffffffffff1681526020019081526020016000208190555061063582600660008773ffffffffffffffffffffffffffffffffffffffff1673ffffffffffffffffffffffffffffffffffffffff16815260200190815260200160002060003373ffffffffffffffffffffffffffffffffffffffff1673ffffffffffffffffffffffffffffffffffffffff16815260200190815260200160002054610cc690919063ffffffff16565b600660008673ffffffffffffffffffffffffffffffffffffffff1673ffffffffffffffffffffffffffffffffffffffff16815260200190815260200160002060003373ffffffffffffffffffffffffffffffffffffffff1673ffffffffffffffffffffffffffffffffffffffff1681526020019081526020016000208190555061070782600560008673ffffffffffffffffffffffffffffffffffffffff1673ffffffffffffffffffffffffffffffffffffffff16815260200190815260200160002054610cdc90919063ffffffff16565b600560008573ffffffffffffffffffffffffffffffffffffffff1673ffffffffffffffffffffffffffffffffffffffff168152602001908152602001600020819055508273ffffffffffffffffffffffffffffffffffffffff168473ffffffffffffffffffffffffffffffffffffffff167fddf252ad1be2c89b69c2b068fc378daa952ba7f163c4a11628f55a4df523b3ef846040516107a79190610ef3565b60405180910390a3600190509392505050565b80600460006101000a81548173ffffffffffffffffffffffffffffffffffffffff021916908373ffffffffffffffffffffffffffffffffffffffff16021790555050565b6000600560008373ffffffffffffffffffffffffffffffffffffffff1673ffffffffffffffffffffffffffffffffffffffff168152602001908152602001600020549050919050565b60035481565b600460009054906101000a900473ffffffffffffffffffffffffffffffffffffffff1681565b600180546108809061102f565b80601f01602080910402602001604051908101604052809291908181526020018280546108ac9061102f565b80156108f95780601f106108ce576101008083540402835291602001916108f9565b820191906000526020600020905b8154815290600101906020018083116108dc57829003601f168201915b505050505081565b600460009054906101000a900473ffffffffffffffffffffffffffffffffffffffff1673ffffffffffffffffffffffffffffffffffffffff163373ffffffffffffffffffffffffffffffffffffffff161461095b57600080fd5b61097081600254610cdc90919063ffffffff16565b6002819055506109ea8160056000600460009054906101000a900473ffffffffffffffffffffffffffffffffffffffff1673ffffffffffffffffffffffffffffffffffffffff1673ffffffffffffffffffffffffffffffffffffffff16815260200190815260200160002054610cdc90919063ffffffff16565b60056000600460009054906101000a900473ffffffffffffffffffffffffffffffffffffffff1673ffffffffffffffffffffffffffffffffffffffff1673ffffffffffffffffffffffffffffffffffffffff1681526020019081526020016000208190555050565b60025481565b600081600560003373ffffffffffffffffffffffffffffffffffffffff1673ffffffffffffffffffffffffffffffffffffffff168152602001908152602001600020541015610aa657600080fd5b610af882600560003373ffffffffffffffffffffffffffffffffffffffff1673ffffffffffffffffffffffffffffffffffffffff16815260200190815260200160002054610cc690919063ffffffff16565b600560003373ffffffffffffffffffffffffffffffffffffffff1673ffffffffffffffffffffffffffffffffffffffff16815260200190815260200160002081905550610b8d82600560008673ffffffffffffffffffffffffffffffffffffffff1673ffffffffffffffffffffffffffffffffffffffff16815260200190815260200160002054610cdc90919063ffffffff16565b600560008573ffffffffffffffffffffffffffffffffffffffff1673ffffffffffffffffffffffffffffffffffffffff168152602001908152602001600020819055508273ffffffffffffffffffffffffffffffffffffffff163373ffffffffffffffffffffffffffffffffffffffff167fddf252ad1be2c89b69c2b068fc378daa952ba7f163c4a11628f55a4df523b3ef84604051610c2d9190610ef3565b60405180910390a36001905092915050565b6000600660008473ffffffffffffffffffffffffffffffffffffffff1673ffffffffffffffffffffffffffffffffffffffff16815260200190815260200160002060008373ffffffffffffffffffffffffffffffffffffffff1673ffffffffffffffffffffffffffffffffffffffff16815260200190815260200160002054905092915050565b60008183610cd49190610f80565b905092915050565b60008183610cea9190610f2a565b905092915050565b600081359050610d01816110d0565b92915050565b600081359050610d16816110e7565b92915050565b600060208284031215610d2e57600080fd5b6000610d3c84828501610cf2565b91505092915050565b60008060408385031215610d5857600080fd5b6000610d6685828601610cf2565b9250506020610d7785828601610cf2565b9150509250929050565b600080600060608486031215610d9657600080fd5b6000610da486828701610cf2565b9350506020610db586828701610cf2565b9250506040610dc686828701610d07565b9150509250925092565b60008060408385031215610de357600080fd5b6000610df185828601610cf2565b9250506020610e0285828601610d07565b9150509250929050565b600060208284031215610e1e57600080fd5b6000610e2c84828501610d07565b91505092915050565b610e3e81610fb4565b82525050565b610e4d81610fc6565b82525050565b6000610e5e82610f0e565b610e688185610f19565b9350610e78818560208601610ffc565b610e81816110bf565b840191505092915050565b610e9581610ff2565b82525050565b6000602082019050610eb06000830184610e35565b92915050565b6000602082019050610ecb6000830184610e44565b92915050565b60006020820190508181036000830152610eeb8184610e53565b905092915050565b6000602082019050610f086000830184610e8c565b92915050565b600081519050919050565b600082825260208201905092915050565b6000610f3582610ff2565b9150610f4083610ff2565b9250827fffffffffffffffffffffffffffffffffffffffffffffffffffffffffffffffff03821115610f7557610f74611061565b5b828201905092915050565b6000610f8b82610ff2565b9150610f9683610ff2565b925082821015610fa957610fa8611061565b5b828203905092915050565b6000610fbf82610fd2565b9050919050565b60008115159050919050565b600073ffffffffffffffffffffffffffffffffffffffff82169050919050565b6000819050919050565b60005b8381101561101a578082015181840152602081019050610fff565b83811115611029576000848401525b50505050565b6000600282049050600182168061104757607f821691505b6020821081141561105b5761105a611090565b5b50919050565b7f4e487b7100000000000000000000000000000000000000000000000000000000600052601160045260246000fd5b7f4e487b7100000000000000000000000000000000000000000000000000000000600052602260045260246000fd5b6000601f19601f8301169050919050565b6110d981610fb4565b81146110e457600080fd5b50565b6110f081610ff2565b81146110fb57600080fd5b5056fea264697066735822122001e3993e04b60c42211b8a3e89b1a0036a758adc3d8d9f57bf2568c32baa5a7a64736f6c63430008010033",
  "immutableReferences": {},
  "source": "pragma solidity 0.8.1;\r\n\r\nimport \"./IERC20.sol\";\r\nimport \"./SafeMath.sol\";\r\n\r\ncontract TFUEL is IERC20 {\r\n    using SafeMath for uint256;\r\n\r\n    string public name;\r\n    string public symbol;\r\n    uint256 public _totalsupply;\r\n    uint256 public decimal;\r\n    address public owner;\r\n\r\n    mapping(address => uint256) private balance;\r\n    mapping(address => mapping(address => uint256)) allowed;\r\n\r\n    constructor(\r\n        string memory _name,\r\n        string memory _symbol,\r\n        uint256 _total,\r\n        uint256 _decimal\r\n    ) {\r\n        owner = msg.sender;\r\n        name = _name;\r\n        symbol = _symbol;\r\n        _totalsupply = _total;\r\n        decimal = _decimal;\r\n        balance[owner] = _totalsupply;\r\n    }\r\n\r\n    function totalSupply() external view override returns (uint256) {\r\n        return _totalsupply;\r\n    }\r\n\r\n    function balanceOf(address account)\r\n        external\r\n        view\r\n        override\r\n        returns (uint256)\r\n    {\r\n        return balance[account];\r\n    }\r\n\r\n    function transfer(address _to, uint256 _amount)\r\n        external\r\n        override\r\n        returns (bool)\r\n    {\r\n        require(balance[msg.sender] >= _amount);\r\n        balance[msg.sender] = balance[msg.sender].sub(_amount);\r\n        balance[_to] = balance[_to].add(_amount);\r\n        emit Transfer(msg.sender, _to, _amount);\r\n        return true;\r\n    }\r\n\r\n    function transferFrom(\r\n        address _from,\r\n        address _to,\r\n        uint256 _amount\r\n    ) external override returns (bool) {\r\n        require(balance[_from] >= _amount);\r\n        require(allowed[_from][msg.sender] >= _amount);\r\n        balance[_from] = balance[_from].sub(_amount);\r\n        allowed[_from][msg.sender] = allowed[_from][msg.sender].sub(_amount);\r\n        balance[_to] = balance[_to].add(_amount);\r\n        emit Transfer(_from, _to, _amount);\r\n        return true;\r\n    }\r\n\r\n    function allowance(address _owner, address _spender)\r\n        external\r\n        view\r\n        override\r\n        returns (uint256)\r\n    {\r\n        return allowed[_owner][_spender];\r\n    }\r\n\r\n    function approve(address _to, uint256 _amount)\r\n        external\r\n        override\r\n        returns (bool)\r\n    {\r\n        allowed[msg.sender][_to] = _amount;\r\n        emit Approval(msg.sender, _to, _amount);\r\n        return true;\r\n    }\r\n\r\n    function mint(uint256 _amount) external {\r\n        require(msg.sender == owner);\r\n        _totalsupply = _totalsupply.add(_amount);\r\n        balance[owner] = balance[owner].add(_amount);\r\n    }\r\n\r\n    function transferowner(address _add) public {\r\n        owner = _add;\r\n    }\r\n}\r\n",
  "sourcePath": "D:/Token mint/contracts/tfuel.sol",
  "compiler": {
    "name": "solc",
    "version": "0.8.1+commit.df193b15.Emscripten.clang"
  },
  "schemaVersion": "3.3.4",
  "updatedAt": "2021-03-10T05:56:21.718Z",
  "networkType": "ethereum",
  "devdoc": {
    "kind": "dev",
    "methods": {
      "balanceOf(address)": {
        "details": "Returns the amount of tokens owned by `account`."
      },
      "totalSupply()": {
        "details": "Returns the amount of tokens in existence."
      }
    },
    "version": 1
  },
  "userdoc": {
    "kind": "user",
    "methods": {},
    "version": 1
  }
}