{
  "contractName": "THETHA",
  "abi": [
    {
      "inputs": [
        {
          "internalType": "string",
          "name": "_name",
          "type": "string"
        },
        {
          "internalType": "string",
          "name": "_symbol",
          "type": "string"
        },
        {
          "internalType": "uint256",
          "name": "_total",
          "type": "uint256"
        },
        {
          "internalType": "uint256",
          "name": "_decimal",
          "type": "uint256"
        },
        {
          "internalType": "address",
          "name": "_dc",
          "type": "address"
        }
      ],
      "stateMutability": "nonpayable",
      "type": "constructor"
    },
    {
      "anonymous": false,
      "inputs": [
        {
          "indexed": true,
          "internalType": "address",
          "name": "owner",
          "type": "address"
        },
        {
          "indexed": true,
          "internalType": "address",
          "name": "spender",
          "type": "address"
        },
        {
          "indexed": false,
          "internalType": "uint256",
          "name": "value",
          "type": "uint256"
        }
      ],
      "name": "Approval",
      "type": "event"
    },
    {
      "anonymous": false,
      "inputs": [
        {
          "indexed": true,
          "internalType": "address",
          "name": "from",
          "type": "address"
        },
        {
          "indexed": true,
          "internalType": "address",
          "name": "to",
          "type": "address"
        },
        {
          "indexed": false,
          "internalType": "uint256",
          "name": "value",
          "type": "uint256"
        }
      ],
      "name": "Transfer",
      "type": "event"
    },
    {
      "inputs": [],
      "name": "_totalsupply",
      "outputs": [
        {
          "internalType": "uint256",
          "name": "",
          "type": "uint256"
        }
      ],
      "stateMutability": "view",
      "type": "function",
      "constant": true
    },
    {
      "inputs": [],
      "name": "decimal",
      "outputs": [
        {
          "internalType": "uint256",
          "name": "",
          "type": "uint256"
        }
      ],
      "stateMutability": "view",
      "type": "function",
      "constant": true
    },
    {
      "inputs": [],
      "name": "name",
      "outputs": [
        {
          "internalType": "string",
          "name": "",
          "type": "string"
        }
      ],
      "stateMutability": "view",
      "type": "function",
      "constant": true
    },
    {
      "inputs": [],
      "name": "owner",
      "outputs": [
        {
          "internalType": "address",
          "name": "",
          "type": "address"
        }
      ],
      "stateMutability": "view",
      "type": "function",
      "constant": true
    },
    {
      "inputs": [],
      "name": "symbol",
      "outputs": [
        {
          "internalType": "string",
          "name": "",
          "type": "string"
        }
      ],
      "stateMutability": "view",
      "type": "function",
      "constant": true
    },
    {
      "inputs": [],
      "name": "totalSupply",
      "outputs": [
        {
          "internalType": "uint256",
          "name": "",
          "type": "uint256"
        }
      ],
      "stateMutability": "view",
      "type": "function",
      "constant": true
    },
    {
      "inputs": [
        {
          "internalType": "address",
          "name": "account",
          "type": "address"
        }
      ],
      "name": "balanceOf",
      "outputs": [
        {
          "internalType": "uint256",
          "name": "",
          "type": "uint256"
        }
      ],
      "stateMutability": "view",
      "type": "function",
      "constant": true
    },
    {
      "inputs": [
        {
          "internalType": "address",
          "name": "_to",
          "type": "address"
        },
        {
          "internalType": "uint256",
          "name": "_amount",
          "type": "uint256"
        }
      ],
      "name": "transfer",
      "outputs": [
        {
          "internalType": "bool",
          "name": "",
          "type": "bool"
        }
      ],
      "stateMutability": "nonpayable",
      "type": "function"
    },
    {
      "inputs": [
        {
          "internalType": "address",
          "name": "_from",
          "type": "address"
        },
        {
          "internalType": "address",
          "name": "_to",
          "type": "address"
        },
        {
          "internalType": "uint256",
          "name": "_amount",
          "type": "uint256"
        }
      ],
      "name": "transferFrom",
      "outputs": [
        {
          "internalType": "bool",
          "name": "",
          "type": "bool"
        }
      ],
      "stateMutability": "nonpayable",
      "type": "function"
    },
    {
      "inputs": [
        {
          "internalType": "address",
          "name": "_owner",
          "type": "address"
        },
        {
          "internalType": "address",
          "name": "_spender",
          "type": "address"
        }
      ],
      "name": "allowance",
      "outputs": [
        {
          "internalType": "uint256",
          "name": "",
          "type": "uint256"
        }
      ],
      "stateMutability": "view",
      "type": "function",
      "constant": true
    },
    {
      "inputs": [
        {
          "internalType": "address",
          "name": "_to",
          "type": "address"
        },
        {
          "internalType": "uint256",
          "name": "_amount",
          "type": "uint256"
        }
      ],
      "name": "approve",
      "outputs": [
        {
          "internalType": "bool",
          "name": "",
          "type": "bool"
        }
      ],
      "stateMutability": "nonpayable",
      "type": "function"
    },
    {
      "inputs": [
        {
          "internalType": "uint256",
          "name": "_amount",
          "type": "uint256"
        }
      ],
      "name": "mint",
      "outputs": [],
      "stateMutability": "nonpayable",
      "type": "function"
    },
    {
      "inputs": [
        {
          "internalType": "address",
          "name": "_add",
          "type": "address"
        }
      ],
      "name": "transferowner",
      "outputs": [],
      "stateMutability": "nonpayable",
      "type": "function"
    }
  ],
  "bytecode": "0x60806040523480156200001157600080fd5b5060405162001871380380620018718339818101604052810190620000379190620002bc565b33600460006101000a81548173ffffffffffffffffffffffffffffffffffffffff021916908373ffffffffffffffffffffffffffffffffffffffff1602179055508460009080519060200190620000909291906200016c565b508360019080519060200190620000a99291906200016c565b50826002819055508160038190555060025460066000600460009054906101000a900473ffffffffffffffffffffffffffffffffffffffff1673ffffffffffffffffffffffffffffffffffffffff1673ffffffffffffffffffffffffffffffffffffffff1681526020019081526020016000208190555080600560006101000a81548173ffffffffffffffffffffffffffffffffffffffff021916908373ffffffffffffffffffffffffffffffffffffffff160217905550505050505062000552565b8280546200017a9062000443565b90600052602060002090601f0160209004810192826200019e5760008555620001ea565b82601f10620001b957805160ff1916838001178555620001ea565b82800160010185558215620001ea579182015b82811115620001e9578251825591602001919060010190620001cc565b5b509050620001f99190620001fd565b5090565b5b8082111562000218576000816000905550600101620001fe565b5090565b6000620002336200022d8462000399565b62000370565b9050828152602081018484840111156200024c57600080fd5b620002598482856200040d565b509392505050565b60008151905062000272816200051e565b92915050565b600082601f8301126200028a57600080fd5b81516200029c8482602086016200021c565b91505092915050565b600081519050620002b68162000538565b92915050565b600080600080600060a08688031215620002d557600080fd5b600086015167ffffffffffffffff811115620002f057600080fd5b620002fe8882890162000278565b955050602086015167ffffffffffffffff8111156200031c57600080fd5b6200032a8882890162000278565b94505060406200033d88828901620002a5565b93505060606200035088828901620002a5565b9250506080620003638882890162000261565b9150509295509295909350565b60006200037c6200038f565b90506200038a828262000479565b919050565b6000604051905090565b600067ffffffffffffffff821115620003b757620003b6620004de565b5b620003c2826200050d565b9050602081019050919050565b6000620003dc82620003e3565b9050919050565b600073ffffffffffffffffffffffffffffffffffffffff82169050919050565b6000819050919050565b60005b838110156200042d57808201518184015260208101905062000410565b838111156200043d576000848401525b50505050565b600060028204905060018216806200045c57607f821691505b60208210811415620004735762000472620004af565b5b50919050565b62000484826200050d565b810181811067ffffffffffffffff82111715620004a657620004a5620004de565b5b80604052505050565b7f4e487b7100000000000000000000000000000000000000000000000000000000600052602260045260246000fd5b7f4e487b7100000000000000000000000000000000000000000000000000000000600052604160045260246000fd5b6000601f19601f8301169050919050565b6200052981620003cf565b81146200053557600080fd5b50565b620005438162000403565b81146200054f57600080fd5b50565b61130f80620005626000396000f3fe608060405234801561001057600080fd5b50600436106100cf5760003560e01c806376809ce31161008c578063a0712d6811610066578063a0712d6814610216578063a393dc4414610232578063a9059cbb14610250578063dd62ed3e14610280576100cf565b806376809ce3146101bc5780638da5cb5b146101da57806395d89b41146101f8576100cf565b806306fdde03146100d4578063095ea7b3146100f257806318160ddd1461012257806323b872dd146101405780633312cbf41461017057806370a082311461018c575b600080fd5b6100dc6102b0565b6040516100e99190610ff2565b60405180910390f35b61010c60048036038101906101079190610ef1565b61033e565b6040516101199190610fd7565b60405180910390f35b61012a610430565b6040516101379190611014565b60405180910390f35b61015a60048036038101906101559190610ea2565b61043a565b6040516101679190610fd7565b60405180910390f35b61018a60048036038101906101859190610e3d565b6107f3565b005b6101a660048036038101906101a19190610e3d565b610837565b6040516101b39190611014565b60405180910390f35b6101c4610880565b6040516101d19190611014565b60405180910390f35b6101e2610886565b6040516101ef9190610fbc565b60405180910390f35b6102006108ac565b60405161020d9190610ff2565b60405180910390f35b610230600480360381019061022b9190610f2d565b61093a565b005b61023a610a8b565b6040516102479190611014565b60405180910390f35b61026a60048036038101906102659190610ef1565b610a91565b6040516102779190610fd7565b60405180910390f35b61029a60048036038101906102959190610e66565b610cb1565b6040516102a79190611014565b60405180910390f35b600080546102bd906111db565b80601f01602080910402602001604051908101604052809291908181526020018280546102e9906111db565b80156103365780601f1061030b57610100808354040283529160200191610336565b820191906000526020600020905b81548152906001019060200180831161031957829003601f168201915b505050505081565b600081600760003373ffffffffffffffffffffffffffffffffffffffff1673ffffffffffffffffffffffffffffffffffffffff16815260200190815260200160002060008573ffffffffffffffffffffffffffffffffffffffff1673ffffffffffffffffffffffffffffffffffffffff168152602001908152602001600020819055508273ffffffffffffffffffffffffffffffffffffffff163373ffffffffffffffffffffffffffffffffffffffff167f8c5be1e5ebec7d5bd14f71427d1e84f3dd0314c0f7b2291e5b200ac8c7c3b9258460405161041e9190611014565b60405180910390a36001905092915050565b6000600254905090565b600081600660008673ffffffffffffffffffffffffffffffffffffffff1673ffffffffffffffffffffffffffffffffffffffff16815260200190815260200160002054101561048857600080fd5b81600760008673ffffffffffffffffffffffffffffffffffffffff1673ffffffffffffffffffffffffffffffffffffffff16815260200190815260200160002060003373ffffffffffffffffffffffffffffffffffffffff1673ffffffffffffffffffffffffffffffffffffffff16815260200190815260200160002054101561051157600080fd5b600061271083606461052391906110d2565b61052d91906110a1565b90506000818461053d919061112c565b905061059181600660008973ffffffffffffffffffffffffffffffffffffffff1673ffffffffffffffffffffffffffffffffffffffff16815260200190815260200160002054610d3890919063ffffffff16565b600660008873ffffffffffffffffffffffffffffffffffffffff1673ffffffffffffffffffffffffffffffffffffffff1681526020019081526020016000208190555061066381600760008973ffffffffffffffffffffffffffffffffffffffff1673ffffffffffffffffffffffffffffffffffffffff16815260200190815260200160002060003373ffffffffffffffffffffffffffffffffffffffff1673ffffffffffffffffffffffffffffffffffffffff16815260200190815260200160002054610d3890919063ffffffff16565b600760008873ffffffffffffffffffffffffffffffffffffffff1673ffffffffffffffffffffffffffffffffffffffff16815260200190815260200160002060003373ffffffffffffffffffffffffffffffffffffffff1673ffffffffffffffffffffffffffffffffffffffff1681526020019081526020016000208190555061073581600660008873ffffffffffffffffffffffffffffffffffffffff1673ffffffffffffffffffffffffffffffffffffffff16815260200190815260200160002054610d4e90919063ffffffff16565b600660008773ffffffffffffffffffffffffffffffffffffffff1673ffffffffffffffffffffffffffffffffffffffff1681526020019081526020016000208190555061078184610d64565b8473ffffffffffffffffffffffffffffffffffffffff168673ffffffffffffffffffffffffffffffffffffffff167fddf252ad1be2c89b69c2b068fc378daa952ba7f163c4a11628f55a4df523b3ef866040516107de9190611014565b60405180910390a36001925050509392505050565b80600460006101000a81548173ffffffffffffffffffffffffffffffffffffffff021916908373ffffffffffffffffffffffffffffffffffffffff16021790555050565b6000600660008373ffffffffffffffffffffffffffffffffffffffff1673ffffffffffffffffffffffffffffffffffffffff168152602001908152602001600020549050919050565b60035481565b600460009054906101000a900473ffffffffffffffffffffffffffffffffffffffff1681565b600180546108b9906111db565b80601f01602080910402602001604051908101604052809291908181526020018280546108e5906111db565b80156109325780601f1061090757610100808354040283529160200191610932565b820191906000526020600020905b81548152906001019060200180831161091557829003601f168201915b505050505081565b600460009054906101000a900473ffffffffffffffffffffffffffffffffffffffff1673ffffffffffffffffffffffffffffffffffffffff163373ffffffffffffffffffffffffffffffffffffffff161461099457600080fd5b6109a981600254610d4e90919063ffffffff16565b600281905550610a238160066000600460009054906101000a900473ffffffffffffffffffffffffffffffffffffffff1673ffffffffffffffffffffffffffffffffffffffff1673ffffffffffffffffffffffffffffffffffffffff16815260200190815260200160002054610d4e90919063ffffffff16565b60066000600460009054906101000a900473ffffffffffffffffffffffffffffffffffffffff1673ffffffffffffffffffffffffffffffffffffffff1673ffffffffffffffffffffffffffffffffffffffff1681526020019081526020016000208190555050565b60025481565b600081600660003373ffffffffffffffffffffffffffffffffffffffff1673ffffffffffffffffffffffffffffffffffffffff168152602001908152602001600020541015610adf57600080fd5b6000612710836064610af191906110d2565b610afb91906110a1565b905060008184610b0b919061112c565b9050610b5f84600660003373ffffffffffffffffffffffffffffffffffffffff1673ffffffffffffffffffffffffffffffffffffffff16815260200190815260200160002054610d3890919063ffffffff16565b600660003373ffffffffffffffffffffffffffffffffffffffff1673ffffffffffffffffffffffffffffffffffffffff16815260200190815260200160002081905550610bf481600660008873ffffffffffffffffffffffffffffffffffffffff1673ffffffffffffffffffffffffffffffffffffffff16815260200190815260200160002054610d4e90919063ffffffff16565b600660008773ffffffffffffffffffffffffffffffffffffffff1673ffffffffffffffffffffffffffffffffffffffff16815260200190815260200160002081905550610c4084610d64565b8473ffffffffffffffffffffffffffffffffffffffff163373ffffffffffffffffffffffffffffffffffffffff167fddf252ad1be2c89b69c2b068fc378daa952ba7f163c4a11628f55a4df523b3ef86604051610c9d9190611014565b60405180910390a360019250505092915050565b6000600760008473ffffffffffffffffffffffffffffffffffffffff1673ffffffffffffffffffffffffffffffffffffffff16815260200190815260200160002060008373ffffffffffffffffffffffffffffffffffffffff1673ffffffffffffffffffffffffffffffffffffffff16815260200190815260200160002054905092915050565b60008183610d46919061112c565b905092915050565b60008183610d5c919061104b565b905092915050565b6000612710826064610d7691906110d2565b610d8091906110a1565b9050600560009054906101000a900473ffffffffffffffffffffffffffffffffffffffff1673ffffffffffffffffffffffffffffffffffffffff1663a0712d68826040518263ffffffff1660e01b8152600401610ddd9190611014565b600060405180830381600087803b158015610df757600080fd5b505af1158015610e0b573d6000803e3d6000fd5b505050505050565b600081359050610e22816112ab565b92915050565b600081359050610e37816112c2565b92915050565b600060208284031215610e4f57600080fd5b6000610e5d84828501610e13565b91505092915050565b60008060408385031215610e7957600080fd5b6000610e8785828601610e13565b9250506020610e9885828601610e13565b9150509250929050565b600080600060608486031215610eb757600080fd5b6000610ec586828701610e13565b9350506020610ed686828701610e13565b9250506040610ee786828701610e28565b9150509250925092565b60008060408385031215610f0457600080fd5b6000610f1285828601610e13565b9250506020610f2385828601610e28565b9150509250929050565b600060208284031215610f3f57600080fd5b6000610f4d84828501610e28565b91505092915050565b610f5f81611160565b82525050565b610f6e81611172565b82525050565b6000610f7f8261102f565b610f89818561103a565b9350610f998185602086016111a8565b610fa28161129a565b840191505092915050565b610fb68161119e565b82525050565b6000602082019050610fd16000830184610f56565b92915050565b6000602082019050610fec6000830184610f65565b92915050565b6000602082019050818103600083015261100c8184610f74565b905092915050565b60006020820190506110296000830184610fad565b92915050565b600081519050919050565b600082825260208201905092915050565b60006110568261119e565b91506110618361119e565b9250827fffffffffffffffffffffffffffffffffffffffffffffffffffffffffffffffff038211156110965761109561120d565b5b828201905092915050565b60006110ac8261119e565b91506110b78361119e565b9250826110c7576110c661123c565b5b828204905092915050565b60006110dd8261119e565b91506110e88361119e565b9250817fffffffffffffffffffffffffffffffffffffffffffffffffffffffffffffffff04831182151516156111215761112061120d565b5b828202905092915050565b60006111378261119e565b91506111428361119e565b9250828210156111555761115461120d565b5b828203905092915050565b600061116b8261117e565b9050919050565b60008115159050919050565b600073ffffffffffffffffffffffffffffffffffffffff82169050919050565b6000819050919050565b60005b838110156111c65780820151818401526020810190506111ab565b838111156111d5576000848401525b50505050565b600060028204905060018216806111f357607f821691505b602082108114156112075761120661126b565b5b50919050565b7f4e487b7100000000000000000000000000000000000000000000000000000000600052601160045260246000fd5b7f4e487b7100000000000000000000000000000000000000000000000000000000600052601260045260246000fd5b7f4e487b7100000000000000000000000000000000000000000000000000000000600052602260045260246000fd5b6000601f19601f8301169050919050565b6112b481611160565b81146112bf57600080fd5b50565b6112cb8161119e565b81146112d657600080fd5b5056fea26469706673582212208c84b75812b6c64c2d200757db4c6a2f7827cb541c5f42a6f2552fabcd47be0464736f6c63430008010033",
  "immutableReferences": {},
  "source": "//SPDX-License-Identifier:MIT\r\npragma solidity 0.8.1;\r\n\r\nimport \"./IERC20.sol\";\r\nimport \"./SafeMath.sol\";\r\nimport \"./tfuel.sol\";\r\n\r\ncontract THETHA is IERC20 {\r\n    using SafeMath for uint256;\r\n\r\n    string public name;\r\n    string public symbol;\r\n    uint256 public _totalsupply;\r\n    uint256 public decimal;\r\n    address public owner;\r\n    TFUEL dc;\r\n\r\n    mapping(address => uint256) private balance;\r\n    mapping(address => mapping(address => uint256)) allowed;\r\n\r\n    constructor(\r\n        string memory _name,\r\n        string memory _symbol,\r\n        uint256 _total,\r\n        uint256 _decimal,\r\n        address _dc\r\n    ) {\r\n        owner = msg.sender;\r\n        name = _name;\r\n        symbol = _symbol;\r\n        _totalsupply = _total;\r\n        decimal = _decimal;\r\n        balance[owner] = _totalsupply;\r\n        dc = TFUEL(_dc);\r\n    }\r\n\r\n    function totalSupply() external view override returns (uint256) {\r\n        return _totalsupply;\r\n    }\r\n\r\n    function balanceOf(address account)\r\n        external\r\n        view\r\n        override\r\n        returns (uint256)\r\n    {\r\n        return balance[account];\r\n    }\r\n\r\n    function transfer(address _to, uint256 _amount)\r\n        external\r\n        override\r\n        returns (bool)\r\n    {\r\n        require(balance[msg.sender] >= _amount);\r\n        uint256 amt = (100 * _amount) / 10000;\r\n        uint256 amount = _amount - amt;\r\n        balance[msg.sender] = balance[msg.sender].sub(_amount);\r\n        balance[_to] = balance[_to].add(amount);\r\n        calc(_amount);\r\n        emit Transfer(msg.sender, _to, _amount);\r\n        return true;\r\n    }\r\n\r\n    function transferFrom(\r\n        address _from,\r\n        address _to,\r\n        uint256 _amount\r\n    ) external override returns (bool) {\r\n        require(balance[_from] >= _amount);\r\n        require(allowed[_from][msg.sender] >= _amount);\r\n        uint256 amt = (100 * _amount) / 10000;\r\n        uint256 amount = _amount - amt;\r\n        balance[_from] = balance[_from].sub(amount);\r\n        allowed[_from][msg.sender] = allowed[_from][msg.sender].sub(amount);\r\n        balance[_to] = balance[_to].add(amount);\r\n        calc(_amount);\r\n        emit Transfer(_from, _to, _amount);\r\n        return true;\r\n    }\r\n\r\n    function allowance(address _owner, address _spender)\r\n        external\r\n        view\r\n        override\r\n        returns (uint256)\r\n    {\r\n        return allowed[_owner][_spender];\r\n    }\r\n\r\n    function approve(address _to, uint256 _amount)\r\n        external\r\n        override\r\n        returns (bool)\r\n    {\r\n        allowed[msg.sender][_to] = _amount;\r\n        emit Approval(msg.sender, _to, _amount);\r\n        return true;\r\n    }\r\n\r\n    function calc(uint256 _amount) internal {\r\n        uint256 amt = (100 * _amount) / 10000;\r\n        dc.mint(amt);\r\n    }\r\n\r\n    function mint(uint256 _amount) external {\r\n        require(msg.sender == owner);\r\n        _totalsupply = _totalsupply.add(_amount);\r\n        balance[owner] = balance[owner].add(_amount);\r\n    }\r\n\r\n    function transferowner(address _add) public {\r\n        owner = _add;\r\n    }\r\n}\r\n",
  "sourcePath": "D:/Token mint/contracts/thetha.sol",
  "compiler": {
    "name": "solc",
    "version": "0.8.1+commit.df193b15.Emscripten.clang"
  },
  "schemaVersion": "3.3.4",
  "updatedAt": "2021-03-10T05:56:21.735Z",
  "networkType": "ethereum",
  "devdoc": {
    "kind": "dev",
    "methods": {
      "balanceOf(address)": {
        "details": "Returns the amount of tokens owned by `account`."
      },
      "totalSupply()": {
        "details": "Returns the amount of tokens in existence."
      }
    },
    "version": 1
  },
  "userdoc": {
    "kind": "user",
    "methods": {},
    "version": 1
  }
}